S0150000696F745F7465737462656E63682E73726563A4
S11300000C94B5000C94D2000C94D2000C94D20041
S11300100C94D2000C94D2000C94D2000C94D20014
S11300200C94D2000C94D2000C94D2000C94C20212
S11300300C94D2000C94D2000C94D2000C94D200F4
S11300400C94D2000C94D2000C94D2000C94D200E4
S11300500C94D2000C94D2000C94D2000C94D200D4
S11300600C94D2000C94D2006E616E00696E66002E
S113007000407A10F35A00A0724E18090010A5D45B
S1130080E80000E87648170000E40B54020000CAB8
S11300909A3B000000E1F5050000809698000000FE
S11300A040420F000000A08601000000102700005D
S11300B00000E803000000006400000000000A00E3
S11300C0000000000100000000002C76D888DC67E6
S11300D04F0823DFC1DFAE59E1B1B796E5E3E4533E
S11300E0C63AE651997696E8E6C28426EB898C9B5B
S11300F062ED407C6FFCEFBC9C9F40F2BAA56FA5FB
S1130100F490055A2AF75C936B6CF9676DC11BFC7C
S1130110E0E40D47FEF520E6B500D0ED902E030097
S1130120943577050080841E080000204E0A0000E4
S113013000C80C333333330F986E12831141EF8DA3
S11301402114893BE65516CFFEE6DB18D1844B38E3
S11301501BF77C1D901DA4BBE424203284725E2214
S11301608100C9F124ECA1E53D2711241FBECFEF86
S1130170D8E0DEBFCDBF11E0A0E0B1E0E6E4FEE2EE
S113018002C005900D92A237B107D9F728E0A2E783
S1130190B1E001C01D92A837B207E1F70E94D30A6B
S11301A00C9421170C940000FC0103969283818324
S11301B02FEF3FEF34832383968385839087878350
S11301C010820895FC01118610860895CF93DF9361
S11301D09C01FB01DC011196CD91DC911297D38334
S11301E0C2838C819D81958384838C819D81DC0174
S11301F013967C936E9312977D836C83318720874B
S1130200F90180818F5F8083DF91CF910895CF932F
S1130210DF93EB01488159814F3F2FEF520721F4BF
S1130220FC01A781B0850DC0DC01139601C0DF017C
S11302301296ED91FC911397208131814217530757
S1130240B0F71296ED91FC911397FB83EA83D58363
S1130250C483BD83AC831396DC93CE9312979987A2
S11302608887FC0120812F5F2083DF91CF9108953F
S1130270CF93DF93FC01A085B185C281D3818481B2
S113028095819D838C83C481D581828193819B8355
S11302908A8311968D919C911297E817F90731F48E
S11302A08481958112969C938E9311971186108662
S11302B08C9181508C93DF91CF9108958CE790E0DD
S11302C09093890080938800E0E8F0E080818C7F3F
S11302D080838BE080938100EFE6F0E08081826090
S11302E08083089531E1FC013083319722E2208339
S11302F03197A3E3A083319760833197708331975B
S11303001082319760E8608331971082319762E000
S11303106083319763E06083319764E06083319751
S113032065E06083319766E06083319767E06083BE
S1130330319768E06083319769E06083319760E1C9
S1130340608331973083319732E13083319733E1E1
S11303503083319734E13083319735E130833197FD
S113036036E13083319737E13083319738E1308398
S1130370319739E13083319730E23083319731E27C
S1130380308331972083319723E220833197408350
S113039031975083319726E22083319727E22083D7
S11303A0319728E22083319729E22083319720E393
S11303B02083319721E32083869708950E945E016C
S11303C0A091A907B091AA07CD91CDBFDD91DEBF61
S11303D0FF91EF91DF91CF91BF91AF919F918F9159
S11303E07F916F915F914F913F912F911F910F9149
S11303F0FF90EF90DF90CF90BF90AF909F908F9041
S11304007F906F905F904F903F902F901F900F9030
S11304100FBE0F90089581E008950F920FB6F894DF
S11304200F921F9211242F923F924F925F926F92DC
S11304307F928F929F92AF92BF92CF92DF92EF9270
S1130440FF920F931F932F933F934F935F936F9359
S11304507F938F939F93AF93BF93CF93DF93EF9348
S1130460FF93A091A907B091AA070DB60D920EB6FD
S11304700D920E941B09A091A907B091AA07CD91E2
S1130480CDBFDD91DEBFFF91EF91DF91CF91BF91A1
S1130490AF919F918F917F916F915F914F913F9118
S11304A02F911F910F91FF90EF90DF90CF90BF900D
S11304B0AF909F908F907F906F905F904F903F9000
S11304C02F901F900F900FBE0F9008950F920FB6AC
S11304D0F8940F921F9211242F923F924F925F92A1
S11304E06F927F928F929F92AF92BF92CF92DF9240
S11304F0EF92FF920F931F932F933F934F935F932A
S11305006F937F938F939F93AF93BF93CF93DF9317
S1130510EF93FF93A091A907B091AA070DB60D928E
S11305200EB60D920E948B0781110E941B09A091A7
S1130530A907B091AA07CD91CDBFDD91DEBFFF9190
S1130540EF91DF91CF91BF91AF919F918F917F9167
S11305506F915F914F913F912F911F910F91FF9058
S1130560EF90DF90CF90BF90AF909F908F907F904F
S11305706F905F904F903F902F901F900F900FBE01
S11305800F9008950E9466021895CF93DF93EC01B3
S11305900E9485078091720190917301892B31F437
S11305A087E791E090937301809372012091740125
S11305B030917501C9018C0F9D1F8B3D45E0940757
S11305C070F42817390770F4C0917201D091730147
S11305D0C20FD31F909375018093740105C0C0E0CE
S11305E0D0E002C0C0E0D0E00E944B08CE01DF9111
S11305F0CF91089508950FB6F8940F92FC01828D5F
S1130600811102C081E001C080E00F900FBE089507
S11306100FB6F8940F92FC01228D838D281302C02B
S113062081E001C080E00F900FBE08951F93CF9327
S1130630DF93EC01142F4C8D41110CC088819981FA
S1130640892B09F045C08A819B810E94810A1B8203
S11306501A8245C0111117C050E08C819D810E94FF
S113066042162C8D8C819D81820F911D9D838C83DC
S11306702A813B818217930768F1888199819D8340
S11306808C8380E02CC050E08E819F810E944216B2
S11306908C8D90E09195819591092E813F81280F51
S11306A0391F3F832E83488159812417350730F43D
S11306B02A813B81820F931F9F838E83123061F4C2
S11306C08A8D882359F08A8D81508A8F80E007C0F3
S11306D080E005C080E003C080E001C080E09A8D26
S11306E09F5F9A8FDF91CF911F910895FC01448DF4
S11306F04423A9F050E026813781240F351F378326
S11307002683828193812817390720F08081918183
S113071097838683CB01668177810E944216089570
S1130720CF93DF93EC010FB6F8940F920DC0898933
S1130730882369F0CE0141960E94960981110E9496
S11307401B0A8E8D81508E8F8E8D181684F38FEF39
S11307508E8F0F900FBE0FB6F8940F920DC0888540
S1130760882369F0CE0108960E94960981110E949F
S11307701B0A8D8D81508D8F8D8D181684F38FEF0C
S11307808D8F0F900FBEDF91CF910895CF93DF939C
S1130790EC010FB6F8940F92E881F9818B8D90E00B
S11307A02C8D30E0829FA001839F500D929F500DAD
S11307B011244E0F5F1F5B834A831A8EFD83EC83E3
S11307C00197289FA001299F500D389F500D112497
S11307D0CF01840F951F9F838E838FEF8D8F8E8F14
S11307E061110CC08885882389F0CE0108960E9487
S11307F09609813059F40E940D0208C0CE01089672
S11308000E94D400CE0141960E94D4000F900FBEE6
S113081081E0DF91CF9108950F931F93CF93DF93DE
S1130820082F162F662329F0869FC00111240196F4
S113083002C080E090E04F960E94C502EC01009750
S113084071F0111103C09983888303C04F96998373
S113085088830B8F1C8F61E0CE010E94C603CE01FA
S1130860DF91CF911F910F910895CF92DF92EF9274
S1130870FF920F931F93CF93DF9300D000D01F926A
S1130880CDB7DEB78C017B015D834C83C22ED12CA6
S11308900FB6F8940F92F801928D838D981718F083
S11308A0F2E0CF1219C04C2DB701C8010E94160303
S11308B0F8019189992349F0C80141960E9496094B
S11308C0813031F40E940D0203C081110E940D0297
S11308D00F900FBE81E04DC08C819D81892B21F446
S11308E00F900FBE80E045C0D11006C0CE01019626
S11308F00E94DE09DD24D3940F900FBE0E94850769
S11309000FB6F8940F92F801858D8F3F09F4158E78
S1130910F801868D8F3F09F4168E0F900FBEBE012D
S11309206C5F7F4FCE0101960E94E90981111BC0C3
S1130930C8010E940803882381F06C817D81C8016D
S113094008960E947909C8010E9490030E944B08EE
S113095081119ECF0E940D029BCFC8010E9490037B
S11309600E944B0895CFC8010E9490030E944B0837
S113097080E00F900F900F900F900F90DF91CF9128
S11309801F910F91FF90EF90DF90CF900895CF9338
S1130990DF938FE190E00E94C502EC01892BF9F00E
S11309A01B821A82198218821D821C821F821E8257
S11309B01A8E81E08B8F1C8E8FEF8D8F8E8FCE01E0
S11309C008960E94D400CE0141960E94D40020E0F3
S11309D040E050E060E070E0CE010E943504CE01BA
S11309E0DF91CF910895AF92BF92CF92DF92EF92B1
S11309F0FF920F931F93CF93DF9300D000D01F92E9
S1130A00CDB7DEB78C016B015D834C83E22EF12CF4
S1130A100FB6F8940F92F801828D882399F1A6807D
S1130A20B780B601C8010E947603E1101AC0F8012C
S1130A30828D8150828F80819181892B29F40E943B
S1130A40C10AF80193838283F80180858823B1F079
S1130A50C80108960E949609813081F40E940D0213
S1130A600DC0F801B782A6828189882339F0C801B4
S1130A7041960E94960981110E940D020F900FBEAB
S1130A8081E05BC08C819D81892B21F40F900FBE86
S1130A9080E053C0F11006C0CE0101960E94DE0929
S1130AA0FF24F3940F900FBE0E9485070FB6F894AD
S1130AB00F92F801858D8F3F09F4158EF801868D0C
S1130AC08F3F09F4168E0F900FBEBE016C5F7F4FEF
S1130AD0CE0101960E94E909811129C0C8010E9432
S1130AE0FB028823F1F0F80180819181892B49F47C
S1130AF00FB6F8940F92828193810E941F0A0F907F
S1130B000FBE6C817D81C80141960E947909C8019C
S1130B100E9490030E944B0881117ACF0E940D021B
S1130B2077CFC8010E9490030E944B0871CFC8017F
S1130B300E9490030E944B0880E00F900F900F904A
S1130B400F900F90DF91CF911F910F91FF90EF9035
S1130B50DF90CF90BF90AF900895E0917107F0912E
S1130B6072078081811107C08FEF9FEF909301017D
S1130B70809300010895E0917107F0917207058058
S1130B80F681E02D0680F781E02D82819381909398
S1130B9001018093000108950F931F93CF93DF9376
S1130BA06115710521F40E94C502EC0101C0EB013D
S1130BB0209779F088E290E00E94C5028C010097AA
S1130BC021F0FC01D08FC78B06C0CE010E94FA022F
S1130BD002C000E010E0C801DF91CF911F910F9196
S1130BE00895CF93DF93EC018F89988D0E94FA02C8
S1130BF0CE010E94FA02DF91CF9108951F93CF9303
S1130C00DF93EC01142F20E00FC0822F90E0FB0152
S1130C10E80FF91F3081DE01A80FB91F59963C93E4
S1130C208081882319F02F5F283078F318A21430BC
S1130C3008F013E01E8B19A31AA2CE0102960E949B
S1130C40E200CE010C960E94E200D987C88784E0B6
S1130C5090E0811B91099D878C87DB8BCA8B1BA23B
S1130C601CA21DA21EA21FA2DF91CF911F91089565
S1130C70CF93C0E010C08C2F90E09C01220F331F53
S1130C80220F331F220F331F820F931F8B57984F4E
S1130C900E94D400CF5FC43070F38CE797E00E94C9
S1130CA0D40083E797E00E94D40086E697E00E9490
S1130CB0D4008DE597E00E94D4008CE797E09093F0
S1130CC072078093710783E797E09093700780938E
S1130CD06F07CF910895CF93DF93EC01E091A907BB
S1130CE0F091AA07938382838091590790915A07C0
S1130CF0C817D90768F46091A9077091AA07809171
S1130D006F07909170076E5F7F4F0E94070117C0B5
S1130D106091A9077091AA07809171079091720759
S1130D206E5F7F4F0E940701809100019091010145
S1130D30C817D90720F4D0930101C0930001DF91B3
S1130D40CF9108952F923F924F925F927F928F920C
S1130D509F92AF92BF92CF92DF92EF92FF920F9346
S1130D601F93CF93DF9300D000D0CDB7DEB79A8323
S1130D7089834B015C834B831901702EB6012501D5
S1130D80CA010E94CC055C01009709F46AC0FC0109
S1130D90C788D08C8B819C810197C80ED91E0B818A
S1130DA01C819201472DB401C5010E94FE05A101D9
S1130DB069817A81C6010E947201F5019183808361
S1130DC0E114F10419F0F701B182A0820FB6F8948E
S1130DD00F9280915B078F5F80935B078091A907D7
S1130DE09091AA07892B59F4B092AA07A092A90757
S1130DF080915B07813091F40E9438060FC0809186
S1130E00570781110BC0E091A907F091AA078689C1
S1130E10781620F0B092AA07A092A90780915307F0
S1130E208F5F80935307F50186899091580798172F
S1130E3010F48093580790E0B5016E5F7F4F9C01DA
S1130E40220F331F220F331F220F331F820F931FD2
S1130E508B57984F0E94E6000F900FBEF1E0F98384
S1130E6002C08FEF8983E981E13069F480915707EB
S1130E70882349F0E091A907F091AA07868987158C
S1130E8010F40E940D0289810F900F900F900F9023
S1130E90DF91CF911F910F91FF90EF90DF90CF9052
S1130EA0BF90AF909F908F907F905F904F903F90B6
S1130EB02F900895AF92BF92CF92DF92EF92FF925C
S1130EC00F93A12CB12CC12CD12CE12CF12C00E0DE
S1130ED020E030E045E550E062E071E080E199E037
S1130EE00E94A206813049F4F89480935707109227
S1130EF05A07109259070E94DE010F91FF90EF905C
S1130F00DF90CF90BF90AF900895809152078F5F8C
S1130F10809352070895DF92EF92FF920F931F93ED
S1130F20CF93DF938091520781119DC0809159071F
S1130F3090915A07019690935A0780935907E0902D
S1130F405907F0905A07E114F104D9F4809171071C
S1130F5090917207809171079091720720916F07A9
S1130F603091700730937207209371079093700744
S1130F7080936F07809154078F5F809354070E947A
S1130F80AD058091000190910101E816F90628F45D
S1130F90D12C53C0DD24D39401C0D12CE09171072E
S1130FA0F09172078081811107C08FEF9FEF9093BA
S1130FB001018093000141C0E0917107F091720733
S1130FC00580F681E02DC681D7818A819B81E81650
S1130FD0F90628F490930101809300012EC08E013C
S1130FE00E5F1F4FC8010E9438018C899D89892B8F
S1130FF021F0CE010C960E9438018E8990915807F9
S1131000981710F48093580790E09C01220F331F27
S1131010220F331F220F331F820F931FB8018B57E8
S1131020984F0E94E6009E89E091A907F091AA07D3
S11310308689981708F0AECFB1CFE091A907F09157
S1131040AA07868990E0FC01EE0FFF1FEE0FFF1F39
S1131050EE0FFF1F8E0F9F1FFC01EB57F84F80818F
S1131060823040F409C0809156078F5F8093560701
S1131070D12C02C0DD24D39480915507882311F02C
S1131080DD24D3948D2DDF91CF911F910F91FF908B
S1131090EF90DF9008950F931F93CF93DF93809188
S11310A052070FB6F8940F928091520781508093A3
S11310B0520780915207811157C080915B078111BB
S11310C032C055C0E0916B07F0916C07C681D7819F
S11310D0CE010C960E9438018E010E5F1F4FC8018D
S11310E00E9438018E8990915807981710F48093C4
S11310F0580790E09C01220F331F220F331F220F49
S1131100331F820F931FB8018B57984F0E94E6003C
S11311109E89E091A907F091AA078689981718F08B
S113112081E080935507809166078111CBCF809130
S1131130560781110DC010C00E948B07882319F037
S113114081E080935507809156078150809356071C
S1131150809156078111F0CF80915507813031F489
S11311600E940D0281E003C080E001C080E00F9086
S11311700FBEDF91CF911F910F910895CF93DF930D
S1131180EC01892BB9F0809152070E948507809168
S1131190590790915A07C80FD91F8091A9079091B8
S11311A0AA0702960E943801CE010E946B060E9493
S11311B04B0801C080E0811102C00E940D02DF9142
S11311C0CF910895CF93DF9324C00E948507C091E7
S11311D05D070E944B08CC23E1F00FB6F8940F9200
S11311E0E0916207F0916307C681D781CE01029630
S11311F00E94380180915B07815080935B07809146
S11312005C07815080935C070F900FBECE010E9453
S1131210F10580915C078111D8CFDF91CF910895BA
S11312200E94E20880918507823010F00E940D022E
S11312300E944210F5CF80915207882321F081E06B
S11312408093550708951092550707C08091580759
S1131250809158078150809358078091580790E0F7
S1131260FC01EE0FFF1FEE0FFF1FEE0FFF1F8E0F8F
S11312709F1FFC01EB57F84F8081882339F380913D
S1131280580790E09C01220F331F220F331F220FB7
S1131290331F280F391FD901AB57B84F1196ED9161
S11312A0FC9112970280F381E02D1296FC93EE9349
S11312B011972857384FE217F30729F42281338115
S11312C0FD0132832183FC01EE0FFF1FEE0FFF1F90
S11312D0EE0FFF1F8E0F9F1FFC01EB57F84F01808D
S11312E0F281E02D868197819093AA078093A907C4
S11312F00895CF93DF93EB016091A9077091AA073A
S1131300645F7F4F0E9407018091A9079091AA070B
S113131002960E9438018091590790915A078C0FC8
S11313209D1F0E946B06DF91CF9108950F931F9329
S1131330CF93DF93DC011596ED91FC911697C6814E
S1131340D7818E01045F1F4FC8010E94380180912C
S1131350520781111CC00A501109C8010E943801AA
S11313608E8990915807981710F48093580790E04D
S11313709C01220F331F220F331F220F331F820FB2
S1131380931FB8018B57984F0E94E60005C0B8011F
S113139086E697E00E94E6009E89E091A907F09115
S11313A0AA078689891720F481E08093550701C034
S11313B080E0DF91CF911F910F9108952091540700
S11313C0FC0120832091590730915A0732832183ED
S11313D00895CF93DF93FC010FB6F8940F924091D8
S11313E0590750915A07908180915407981729F012
S11313F08181928148175907B0F421813281CA0151
S1131400821B930BEB01A881B9818A179B0768F4AF
S1131410CF01241B350B2A0F3B1F398328830E94DD
S1131420DE0980E003C081E001C081E00F900FBEBF
S1131430DF91CF91089581E08093550708950F932C
S11314401F93CF93DF93FC01892B09F455C02689A0
S1131450A091A907B091AA0756968C91281708F075
S11314604BC084859585992364F0A091A907B09118
S1131470AA0756963C9184E090E0831B91099587D6
S113148084878285938530E0A901440F551F440F5A
S1131490551F440F551F240F351F2B57384F8217E4
S11314A0930719F58F01EF012296CE010E943801AE
S11314B0E091A907F091AA078689F801868B90919B
S11314C05807981710F48093580790E09C01220F56
S11314D0331F220F331F220F331F820F931FBE01AE
S11314E08B57984F0E94E60007C0A091A907B091BE
S11314F0AA0756968C91868BDF91CF911F910F91FD
S113150008950F931F93CF93DF93FC01892B79F1F7
S113151082A1815082A3268991A1291751F18111B9
S11315202AC0EF018F010E5F1F4FC8010E943801CE
S113153089A18E8B24E030E0281B31093D872C875C
S113154090915807981710F48093580790E09C01E5
S1131550220F331F220F331F220F331F820F931FBB
S1131560B8018B57984F0E94E60081E005C080E0E7
S113157003C080E001C080E0DF91CF911F910F9103
S113158008958091A9079091AA07892B39F0E091D9
S1131590A907F091AA0782A18F5F82A38091A9076E
S11315A09091AA070895CF93DF93CDB7DEB7E8975C
S11315B00FB6F894DEBF0FBECDBF0E94820B81E050
S11315C00E94C7048DEA97E00E949E0FA12CB12CC3
S11315D0C12CD12C0F2EFBEAEF2EF7E0FF2EF02DBD
S11315E002E02DEA37E045E550E067E071E08CEB7E
S11315F09FE00E94A2060E945A072FEF81EE94E01A
S1131600215080409040E1F700C0000004B600FE85
S113161007C081E08093770894B7892784BF02C00C
S1131620109277084091770867E2CE0101960E94F4
S1131630D50E68E3CE010F960E94550E84B18062E8
S113164084B92FEF81EE94E0215080409040E1F77F
S113165000C0000095B180E2892785B9EFA9F8ADF3
S1131660CE010F960995EB85FC8520E04BE064E103
S113167071E0CE0101960995EB85FC85BE01655D9F
S11316807F4FDB010D900020E9F71197AD01461B58
S1131690570B24E1241BCE0101960995EB85FC85AB
S11316A020E44BE060E271E0CE0101960995EB8500
S11316B0FC85BE016F5C7F4FDB010D900020E9F7D4
S11316C01197AD01461B570B24E5241BCE0101964F
S11316D009952FEF89E698E1215080409040E1F789
S11316E000C00000ED85FE85CE0101960995B2CFBC
S11316F014B817B81AB815B818B81BB813B816B870
S113170019B808950E94780B0E94900B0895E1EB9C
S1131710F7E08385138608958091B10708950895AD
S11317201092B9001092BA001092BB001092BC0043
S11317301092BD0080E28093B80008951092B90021
S11317401092BA001092BB001092BC001092BD001F
S113175080E28093B8000895ECEBF0E08081846A25
S113176080830895E1EBF7E010828FEF8183138289
S11317701282178216821486ECEBF0E08081806876
S1131780808380818E7F80830895CF93DF930000D0
S1131790C1EBD7E0EC85F0E0EE0FFF1FE45DFE4FF8
S11317A00190F081E02D09958C870000DF91CF91A5
S11317B008950E948C0B882351F08091BC078111FD
S11317C006C08091BC00882314F40E94C50B0895C0
S11317D08091B900887F089580E98093BC00E1EB93
S11317E0F7E0108213868DE00895E1EBF7E01082B4
S11317F0138680E008950E94AC0B81E008950E9456
S1131800FB0B8093BD070895FF920F931F93CF9313
S1131810DF93F82E8B01EA010E948C0B811113C017
S1131820E1EBF7E081E08083F1821286178306837F
S1131830D187C087138212821582148213860E9474
S1131840FF0B81E001C080E0DF91CF911F910F91E8
S1131850FF9008950E94AC0B82E008950E942A0C28
S11318608093BD070895FF920F931F93CF93DF9347
S1131870F82E8B01EA010E948C0B811113C0E1EB5D
S1131880F7E081E08083F182128613830283D5839B
S1131890C483178216821186108613860E942E0C2A
S11318A081E001C080E0DF91CF911F910F91FF9003
S11318B00895BF92CF92DF92EF92FF920F931F93FE
S11318C0CF93DF93B82E6B017A01E9010E948C0B50
S11318D0811113C0E1EBF7E081E08083B18282875C
S11318E0D382C282F582E482D783C68311870087BC
S11318F013860E942E0C81E001C080E0DF91CF911D
S11319001F910F91FF90EF90DF90CF90BF900895BB
S11319100E94AC0B0E94FB0B0895ECEBF0E080817D
S1131920846980830E94B20B80E0089582E08093F2
S1131930BC070E948D0C08958091B9079091BA0755
S1131940019731F4ECEBF0E080818F7B808305C05C
S1131950ECEBF0E080818064808384E008950E9451
S1131960E80B883119F00E94960C089583E00895DD
S1131970ECEBF0E080818469808380E008950E942C
S1131980AC0B0E94FB0B089580E98093BC00E1EB53
S1131990F7E0108282E083870E94EC0B0895809127
S11319A0BB0008950F931F93CF93DF930E94E80B1E
S11319B0883FE1F300000E94E80B803539F00E9473
S11319C0E80B883519F00E94EC0B31C0E1EBF7E02D
S11319D080859185019791878087892BA1F0EF01FC
S11319E0068117810E94CF0CF80180838E819F812C
S11319F001969F838E83ECEBF0E080818068808386
S1131A000E94D20C14C0C1EBD7E00E811F810E944A
S1131A10CF0CF80180838E819F8101969F838E83F2
S1131A20ECEBF0E08081806480830E948D0CDF9178
S1131A30CF911F910F9108958093BB0008950E9448
S1131A40E80B803341F00E94E80B883421F00E94B7
S1131A50E80B803219F40E948D0C0895E1EBF7E055
S1131A60848195819C012150310935832483892BFC
S1131A70A1F0DF010280F381E02DCF0101961396DE
S1131A809C938E93129780810E941C0DECEBF0E0E6
S1131A9080818068808383E008958091BB078823D8
S1131AA029F01092BB070E94FB0B08950E948D0C35
S1131AB008950E94E80B883039F00E94E80B8031C9
S1131AC019F00E94EC0B08958091B207880F0E94D0
S1131AD01C0DECEBF0E080818F7D80838081806839
S1131AE080838AE008950E94E80B883039F00E94D0
S1131AF0E80B803119F00E94EC0B08958091B20735
S1131B0090E0880F991F81600E941C0DECEBF0E0BF
S1131B1080818F7D808380818068808389E00895BF
S1131B200F931F93CF93DF93EC018CEA898383E3B4
S1131B308A831B82BE016F5F7F4F43E088810E94CE
S1131B405D0F2FEF83EF91E0215080409040E1F74B
S1131B5000C00000BE016B5F7F4F47E088810E9498
S1131B607D0F6E81862F90E0A0E0B0E0072E7CE030
S1131B70880F991FAA1FBB1F7A95D1F7702D6F810B
S1131B8020E1629FB0011124AB01770F660B770B44
S1131B90842B952BA62BB72B288522952F70BC015F
S1131BA0CD01622B6C877D878E879F870E94B01042
S1131BB020E030E040E855E30E943E1120E030E0B0
S1131BC048EC52E40E943E11E62FF72F462F572F80
S1131BD0682F792F4C8B5D8B6E8B7F8B9E01245EDF
S1131BE03F4F9F938F93FF93EF9300E611E01F9372
S1131BF00F933F932F930E94A1166885862F90E040
S1131C00A0E0B0E0DC0199278827AC01BD0144279E
S1131C1055276F707727898590E0A0E0B0E0BA2F50
S1131C20A92F982F8827842B952BA62BB72B2A8591
S1131C30BC01CD01622B688B798B8A8B9B8B0E94B4
S1131C40B01020E030E040E855E30E943E1120E06F
S1131C5030E044EB53E40E943E1120E030E048E6DB
S1131C6052E40E944310262F372F462F572F682FF8
S1131C70792F488F598F6A8F7B8FA2969F938F936A
S1131C803F932F931F930F93DF93CF930E94A1163B
S1131C908DB79EB740960FB6F8949EBF0FBE8DBF0A
S1131CA0DF91CF911F910F910895FC01862F20E9B8
S1131CB03DE031A720A760839EEB918398E0928357
S1131CC01382BF016F5F7F4F43E00E945D0F8FE17E
S1131CD09EE40197F1F700C000000895FC013181F2
S1131CE0418550E0440F551F440F551F440F551FA5
S1131CF0232F207F242B9781892F90E0880F991F11
S1131D009085522F5460582B592B5283282B292B02
S1131D10238360E1369F90011124242B322F3460F9
S1131D20382B392B3483822B892B8583118217829C
S1131D3010861682089521E0FC0121830895CF9333
S1131D40DF93EC010E949B0ECE010E946E0EBE0139
S1131D506E5F7F4F44E088810E945D0FDF91CF91D9
S1131D60089570E0660F771F660F771F50E0440FE9
S1131D70551F6860462B422BFC014183089530E1D6
S1131D80639FB001112450E0440F551F440F551FA9
S1131D90440F551F30E0220F331F220F331F6062A0
S1131DA0462B242BFC01218308950F931F93CF937B
S1131DB0DF93EC0181E08987688384E29FE09B875D
S1131DC08A878FE99EE09D878C87442381F020E0F9
S1131DD041E060E0CE010E94BF0ECE010E946E0E73
S1131DE042E0BE016E5F7F4F88810E945D0F20E05C
S1131DF041E060E0CE010E94BF0ECE010E946E0E53
S1131E008E010E5F1F4F44E0B80188810E945D0F70
S1131E1020E040E061E0CE010E94B10ECE010E94BC
S1131E206E0E44E0B80188810E945D0FDF91CF916E
S1131E301F910F9108956068FC0161830895FC016E
S1131E40618321E020870895CF92DF92EF92FF9281
S1131E500F931F93CF93DF938C016B01D42F622FC9
S1131E600E941B0FC8010E946E0E780182E0E80EEA
S1131E70F11C44E0B701F80180810E945D0FC0E0CD
S1131E8011C0F601EC0FF11D6081C8010E941F0F03
S1131E90C8010E946E0E44E0B701F80180810E94DF
S1131EA05D0FCF5FCD1768F3DF91CF911F910F9135
S1131EB0FF90EF90DF90CF900895E0915001F09162
S1131EC0510150E00995811106C00895E0915E0129
S1131ED0F0915F010995E0915A01F0915B01099538
S1131EE08111F4CFE0915801F091590109958111C4
S1131EF002C00000089500000895E0915201F0919D
S1131F00530150E090E00995811106C00895E091D5
S1131F105E01F0915F010995E0915A01F0915B0136
S1131F2009958111F4CFE0915801F0915901099577
S1131F30811102C00000089500000895CF93DF933B
S1131F40EC0140E065E08AE00E940C0499838883F8
S1131F50DF91CF9108950F931F93CF93DF938C015B
S1131F60EB010E943910B801CE010E943910DF91B3
S1131F70CF911F910F910895CF93DF93CDB7DEB723
S1131F80A2970FB6F894DEBF0FBECDBF8C0141E01F
S1131F9067E2CE0101960E94D50E65EC77E08EE1F2
S1131FA098E00E94AB0F8CE0E6E6F1E0A0E2B8E036
S1131FB001900D928A95E1F78EE198E09093C40721
S1131FC08093C30720E041E050E06EEB77E0F80136
S1131FD0808191810E94F3048130C9F58091BE070C
S1131FE0811135C0EEEBF7E0818192812381348148
S1131FF03F932F939F938F9380E691E09F938F93CA
S11320007E01FFE0EF0EF11CFF92EF920E94A116F9
S1132010F70101900020E9F73197AF014E195F09EC
S113202084E190E0841B950BB701805E974F0E947A
S11320304B168BE0E0E2F1E0A0E2B8E001900D92F3
S11320408A95E1F70FB6F894DEBF0FBECDBFEB85DE
S1132050FC856091C3077091C4076E5F7F4F20E0D9
S113206044E1CE01019609958CE291E00E94BE08FC
S1132070A9CFFC01E95AFF4F71836083FB0191836F
S11320808083089508955058BB27AA270E945B10A7
S11320900C9404110E94F61038F00E94FD1020F0F8
S11320A039F49F3F19F426F40C94F3100EF4E095E0
S11320B0E7FB0C94ED10E92F0E94151158F3BA17A1
S11320C0620773078407950720F079F4A6F50C944A
S11320D037110EF4E0950B2EBA2FA02D0B01B90188
S11320E090010C01CA01A0011124FF27591B99F08A
S11320F0593F50F4503E68F11A16F040A22F232F96
S1132100342F4427585FF3CF469537952795A795E5
S1132110F0405395C9F77EF41F16BA0B620B730B8C
S1132120840BBAF09150A1F0FF0FBB1F661F771FFD
S1132130881FC2F70EC0BA0F621F731F841F48F4B2
S1132140879577956795B795F7959E3F08F0B0CF3B
S11321509395880F08F09927EE0F97958795089522
S1132160E89409C097FB3EF490958095709561952D
S11321707F4F8F4F9F4F9923A9F0F92F96E9BB27E3
S11321809395F695879577956795B795F111F8CF5F
S1132190FAF4BB0F11F460FF1BC06F5F7F4F8F4FCA
S11321A09F4F16C0882311F096E911C0772321F0C0
S11321B09EE8872F762F05C0662371F096E8862F58
S11321C070E060E02AF09A95660F771F881FDAF7AF
S11321D0880F9695879597F9089597F99F6780E8F2
S11321E070E060E008959FEF80EC089500240A9465
S11321F01616170618060906089500240A941216DE
S11322001306140605060895092E0394000C11F410
S1132210882352F0BB0F40F4BF2B11F460FF04C0BD
S11322206F5F7F4F8F4F9F4F089557FD9058440F16
S1132230551F59F05F3F71F04795880F97FB991F21
S113224061F09F3F79F087950895121613061406DE
S1132250551FF2CF4695F1DF08C01616170618066B
S1132260991FF1CF86957105610508940895E89446
S1132270BB2766277727CB0197F908950E94511150
S11322800C9404110E94F61038F00E94FD1020F006
S1132290952311F00C94ED100C94F31011240C946C
S11322A038110E94151170F3959FC1F3950F50E0FA
S11322B0551F629FF001729FBB27F00DB11D639FF4
S11322C0AA27F00DB11DAA1F649F6627B00DA11D9A
S11322D0661F829F2227B00DA11D621F739FB00D40
S11322E0A11D621F839FA00D611D221F749F3327B0
S11322F0A00D611D231F849F600D211D822F762F49
S11323006A2F11249F5750409AF0F1F088234AF025
S1132310EE0FFF1FBB1F661F771F881F9150504091
S1132320A9F79E3F510580F00C94ED100C943811E0
S11323305F3FE4F3983ED4F3869577956795B79518
S1132340F795E7959F5FC1F7FE2B880F911D969532
S1132350879597F90895A0E1B0E0E1EBF1E10C94E1
S113236028157C011B016A01FC01178216828381F6
S113237081FF44C39E012F5F3F4F3901F7019381D1
S1132380F10193FD859193FF81911F01882309F445
S113239031C3853239F493FD859193FF81911F01F7
S11323A0853239F4B70190E00E9465165601650143
S11323B0E5CF10E0512C912CFFE1F915D8F08B32C8
S11323C079F038F4803279F08332A1F4F92DF06198
S11323D02EC08D3261F0803369F4292D21602DC027
S11323E0392D3260932E892D8460982E2AC0E92DD0
S11323F0E86015C097FC2DC020ED280F2A3088F422
S113240096FE06C03AE0139F200D1124122F19C026
S11324108AE0589E200D1124522EE92DE0629E2E52
S113242010C08E3231F496FCE5C2F92DF0649F2E73
S113243008C08C3621F4292D2068922E02C08836DB
S113244041F4F10193FD859193FF81911F01811165
S1132450B3CF9BEB980F933020F4992D9061805E5D
S113246007C09BE9980F933008F066C1992D9F7EB1
S113247096FF16E09F73992E853619F49064992E71
S113248008C0863621F4392F3068932E02C011110A
S1132490115097FE07C01C3350F444244394410E5A
S11324A027E00BC0183038F027E017E005C027E01C
S11324B09CE3492E02C0212F412C560184E0A80E32
S11324C0B11CF6016081718182819381042DA30185
S11324D00E945F156C01F981FC87F0FF02C0F3FFD5
S11324E006C091FC06C092FE06C000E205C00DE2E3
S11324F003C00BE201C000E08C858C7019F001115F
S11325005AC29BC297FE10C04C0CFC85F4FF04C059
S11325108A81813309F44A94141474F528E024154B
S113252078F588E0482E2CC096FC2AC0812F90E0D4
S11325308C159D059CF03CEFC3163FEFD30674F059
S1132540892D8068982E0AC0E2E0F0E0EC0FFD1FB0
S1132550E10FF11D8081803319F411501111F4CF72
S113256097FE0EC044244394410E812F90E0C81678
S1132570D9062CF41C1904C04424439401C010E06F
S113258097FE06C01C141D0434F4C601019605C050
S113259085E090E002C081E090E0011101961123F2
S11325A031F0212F30E02F5F3F4F820F931F252DF5
S11325B030E08217930714F4581A01C0512C892D66
S11325C0897049F4552039F0B70180E290E00E9407
S11325D065165A94F7CF002329F0B701802F90E0B5
S11325E00E94651693FC09C0552039F0B70180E3B9
S11325F090E00E9465165A94F7CF97FE4CC04601AE
S1132600D7FE02C0812C912CC60188199909F301C7
S1132610E80FF91FFE87ED87960124193109388BDD
S11326202F87012F10E01195019511093FEF8316B3
S1132630930629F4B7018EE290E00E946516C8144F
S1132640D9044CF08F8598898815990524F4ED8573
S1132650FE85818101C080E3F1E08F1A91082D8508
S11326603E852F5F3F4F3E872D87801691062CF0C5
S1132670B70190E00E946516D9CFC814D90441F47B
S11326809A81963320F4953319F43C8534FF81E321
S1132690B70190E04EC08A81813319F09C859F7EFA
S11326A09C87B70190E00E946516111105C094FC47
S11326B018C085E690E017C0B7018EE290E00E9452
S11326C065161E5F82E001E0080FF301E80FF11DBB
S11326D08081B70190E00E946516802F0113F3CF2B
S11326E0E6CF85E490E0B7010E946516D7FC06C0EA
S11326F0C114D10441F4EC85E4FF05C0D194C19424
S1132700D1088DE201C08BE2B70190E00E9465160A
S113271080E32AE0C216D1042CF08F5FFAE0CF1ACE
S1132720D108F7CFB70190E00E946516B701C60142
S1132730C0960E94651654C1833631F0833779F010
S1132740833509F056C020C0560132E0A30EB11CF7
S1132750F6018081898301E010E0630112C0560113
S1132760F2E0AF0EB11CF601C080D18096FE03C02A
S1132770612F70E002C06FEF7FEFC6010E945A160E
S11327808C01F92DFF7714C0560122E0A20EB11C72
S1132790F601C080D18096FE03C0612F70E002C0B4
S11327A06FEF7FEFC6010E9437168C01F92DF06898
S11327B09F2EF3FD1AC0852D90E008171907A8F481
S11327C0B70180E290E00E9465165A94F4CFF601B6
S11327D097FC859197FE81916F01B70190E00E946B
S11327E0651651105A94015011090115110579F714
S11327F0F7C0843611F0893661F5560197FE09C099
S113280024E0A20EB11CF601608171818281938162
S11328100AC0F2E0AF0EB11CF60160817181072E8F
S1132820000C880B990BF92DFF769F2E97FF09C09A
S113283090958095709561957F4F8F4F9F4FF0686D
S11328409F2E2AE030E0A3010E94C316C82EC618AA
S11328503FC0092D853721F40F7E2AE030E01DC0EA
S1132860097F8F3691F018F4883559F0C3C080374A
S113287019F0883711F0BEC0006104FF09C004607C
S113288007C094FE08C0066006C028E030E005C01A
S113289020E130E002C020E132E0560107FF09C028
S11328A084E0A80EB11CF60160817181828193815C
S11328B008C0F2E0AF0EB11CF6016081718180E0C6
S11328C090E0A3010E94C316C82EC6180F77902E5D
S11328D096FE0BC0092D0E7FC11650F494FE0AC05B
S11328E092FC08C0092D0E7E05C0DC2C092D03C006
S11328F0DC2C01C0D12E04FF0DC0FE01EC0DF11D36
S11329008081803311F4097E09C002FF06C0D3948C
S1132910D39404C0802F867809F0D39403FD11C0AA
S113292000FF06C01C2DD51480F4150D1D190DC013
S1132930D51458F4B70180E290E00E946516D39450
S1132940F7CFD51410F45D1801C0512C04FF10C04A
S1132950B70180E390E00E94651602FF17C001FDF5
S113296003C088E790E002C088E590E0B7010CC09E
S1132970802F867859F001FF02C08BE201C080E20B
S113298007FD8DE2B70190E00E946516C11638F488
S1132990B70180E390E00E9465161150F7CFCA9406
S11329A0F301EC0DF11D8081B70190E00E946516E2
S11329B0C110F5CF15C0F4E0F51560F584E0581AA0
S11329C093FE1FC0011127C02C8523FF2AC008E6EF
S11329D010E0392D3071932EF8018491811124C0B7
S11329E0552009F4E4CCB70180E290E00E9465161A
S11329F05A94F6CFF7018681978126C08FEF9FEF17
S1132A0023C0B70180E290E00E9465165A945110E9
S1132A10F8CFD8CF512CB701802F90E00E946516D3
S1132A20D3CF0CE610E0D5CF91108052B70190E0DF
S1132A300E9465160F5F1F4FCFCF23E0251510F4BA
S1132A4083E0BDCF512CC0CF6096E2E10C944415D5
S1132A502F923F924F925F926F927F928F929F92AA
S1132A60AF92BF92CF92DF92EF92FF920F931F9398
S1132A70CF93DF93CDB7DEB7CA1BDB0B0FB6F89449
S1132A80DEBF0FBECDBF09942A88398848885F8489
S1132A906E847D848C849B84AA84B984C884DF80FA
S1132AA0EE80FD800C811B81AA81B981CE0FD11DDE
S1132AB00FB6F894DEBF0FBECDBFED0108952830E8
S1132AC008F027E03327DA01990F311D87FD916063
S1132AD000966105710539F432602E5F3D9330E351
S1132AE02A95E1F708959F3F30F08038710561051C
S1132AF009F03C5F3C5F3D93913008F08068911D84
S1132B00DF93CF931F930F93FF92EF92192F987F28
S1132B109695E92F96959695E90FFF27E653FF4F73
S1132B2099273327EE24FF24A701E7010590089491
S1132B30079428F4360FE71EF81E491F511D660F2F
S1132B40771F881F991F0694A1F70590079428F40E
S1132B50E70EF81E491F561FC11D770F881F991FC6
S1132B60661F0694A1F70590079428F4F80E491FF0
S1132B70561FC71FD11D880F991F661F771F069404
S1132B80A1F70590079420F4490F561FC71FD81FBB
S1132B90990F661F771F881F0694A9F784911095D3
S1132BA0177041F0D695C79557954795F794E794D4
S1132BB01A95C1F7E0E7F0E0689415901591359106
S1132BC06591959105907FE27395E118F10A430BA5
S1132BD0560BC90BD009C0F7E10CF11E431F561F59
S1132BE0C91FD01D7EF4703311F48A95E6CFE894A2
S1132BF0015030F0080F0AF40027021708F4202FC0
S1132C002395022F7A3328F079E37D932A95E9F707
S1132C1010C07D932A9589F6069497956795379504
S1132C2017951794E118F10A430B560BC90BD009F9
S1132C3098F023957E9173957A3308F070E37C9332
S1132C402013B8F77E9170617D9330F0839571E322
S1132C507D9370E32A95E1F71124EF90FF900F9193
S1132C601F91CF91DF91992787FD90950895FC01DD
S1132C700590615070400110D8F7809590958E0FA3
S1132C809F1F0895FB01DC0102C001900D92415089
S1132C905040D8F70895FB01DC014150504048F002
S1132CA001900D920020C9F701C01D92415050407F
S1132CB0E0F70895FC016150704001900110D8F7CD
S1132CC0809590958E0F9F1F08950F931F93CF9318
S1132CD0DF93FB01238121FD03C08FEF9FEF2CC005
S1132CE022FF16C04681578124813581421753073C
S1132CF044F4A081B1819D012F5F3F4F3183208334
S1132D008C93268137812F5F3F4F3783268314C0EE
S1132D108B01EC01FB010084F185E02D0995892BE1
S1132D20E1F6D80116968D919C9117970196179606
S1132D309C938E931697CE01DF91CF911F910F91A3
S1132D400895AEE0B0E0E7EAF6E10C9436150D899B
S1132D501E8986E08C831A8309838FEF9FE79E8305
S1132D608D83AE01475E5F4F6F89788DCE010196EA
S1132D700E94AB11EF81F885E00FF11F10822E96AF
S1132D80E4E00C945215FA01AA27283051F12031BD
S1132D9081F1E8946F936E7F6E5F7F4F8F4F9F4FEB
S1132DA0AF4FB1E03ED0B4E03CD0670F781F891F2D
S1132DB09A1FA11D680F791F8A1F911DA11D6A0FFB
S1132DC0711D811D911DA11D20D009F468943F91AE
S1132DD02AE0269F11243019305D3193DEF6CF01AD
S1132DE00895462F4770405D4193B3E00FD0C9F773
S1132DF0F6CF462F4F70405D4A3318F0495D31FDE0
S1132E004052419302D0A9F7EACFB4E0A695979532
S1132E10879577956795BA95C9F700976105710508
S1132E2008959B01AC010A2E069457954795379552
S1132E302795BA95C9F7620F731F841F951FA01DAC
S1092E400895F894FFCF91
S1132E46FFFF49444C4500646973706C61792074D2
S1132E5661736B004375726E742048756D693A0030
S1132E664375726E742054656D703A00F50B730DDC
S1132E76590D1F0DD20CFB0B2A0C880C8D0C9C0CC7
S1132E86AF0CB80CBF0CEC0B960CC40C900B9E0B41
S1132E96330C040C590C0000870B8C0B8F0BD90BCD
S1132EA625332E3266004B6576696E20536D697440
S1052EB66800AE
S9030000FC
